:020000040800F2
:10000000000002208D1A0008E1180008E31800081B
:10001000E5180008E7180008E918000800000000CB
:10002000000000000000000000000000EB180008C5
:10003000ED18000800000000EF180008F118000893
:10004000DD1A0008DD1A0008DD1A0008DD1A0008B4
:10005000DD1A0008DD1A0008DD1A0008DD1A0008A4
:10006000DD1A0008DD1A0008DD1A0008DD1A000894
:10007000DD1A0008DD1A0008DD1A0008DD1A000884
:10008000DD1A0008DD1A0008DD1A0008DD1A000874
:10009000F9180008DD1A0008DD1A0008DD1A00084A
:1000A000DD1A0008DD1A0008DD1A0008DD1A000854
:1000B000DD1A0008DD1A0008DD1A0008DD1A000844
:1000C000DD1A0008DD1A0008DD1A0008DD1A000834
:1000D000DD1A0008DD1A0008DD1A0008DD1A000824
:1000E000DD1A0008DD1A0008DD1A0008DD1A000814
:1000F000DD1A0008DD1A0008DD1A0008DD1A000804
:10010000DD1A0008DD1A0008DD1A0008DD1A0008F3
:10011000DD1A0008DD1A0008DD1A0008DD1A0008E3
:10012000DD1A0008DD1A0008DD1A0008DD1A0008D3
:10013000DD1A0008DD1A0008DD1A0008DD1A0008C3
:1001400009190008DD1A0008DD1A0008DD1A000888
:10015000DD1A0008DD1A0008DD1A0008DD1A0008A3
:10016000DD1A0008DD1A0008DD1A0008DD1A000893
:10017000DD1A0008DD1A0008DD1A00080000000082
:08018000DD1A0008DD1A000879
:1001C00010B5054C237833B9044B13B10448AFF391
:1001D00000800123237010BDC00900200000000032
:1001E0009092000808B5034B1BB103490348AFF3D5
:1001F000008008BD00000000C409002090920008A3
:100200004FF0FF0C1CEAD0521EBF1CEAD15392EAF9
:100210000C0F93EA0C0F6FD01A4480EA010C4002D5
:1002200018BF5FEA41211ED04FF0006343EA50102F
:1002300043EA5111A0FB01310CF00040B1F5000F71
:100240003EBF490041EAD3715B0040EA010062F120
:100250007F02FD2A1DD8B3F1004F40EBC25008BF0A
:1002600020F00100704790F0000F0CF0004C08BF28
:1002700049024CEA502040EA51207F3AC2BFD2F1F5
:10028000FF0340EAC250704740F400004FF0000303
:10029000013A5DDC12F1190FDCBF00F0004070473D
:1002A000C2F10002410021FA02F1C2F1200200FA7B
:1002B00002FC5FEA310040F1000053EA4C0308BF42
:1002C00020EADC70704792F0000F00F0004C02BF93
:1002D000400010F4000F013AF9D040EA0C0093F00E
:1002E000000F01F0004C02BF490011F4000F013B68
:1002F000F9D041EA0C018FE70CEAD15392EA0C0FD6
:1003000018BF93EA0C0F0AD030F0004C18BF31F040
:10031000004CD8D180EA010000F00040704790F016
:10032000000F17BF90F0004F084691F0000F91F0BA
:10033000004F14D092EA0C0F01D142020FD193EA80
:100340000C0F03D14B0218BF084608D180EA010008
:1003500000F0004040F0FE4040F40000704740F0E4
:10036000FE4040F44000704781F0004102E000BFD1
:1003700083F0004330B54FEA41044FEA430594EA65
:10038000050F08BF90EA020F1FBF54EA000C55EAA0
:10039000020C7FEA645C7FEA655C00F0E2804FEA71
:1003A0005454D4EB5555B8BF6D420CDD2C4480EA53
:1003B000020281EA030382EA000083EA010180EA83
:1003C000020281EA0303362D88BF30BD11F0004FD1
:1003D0004FEA01314FF4801C4CEA113102D0404207
:1003E00061EB410113F0004F4FEA03334CEA133342
:1003F00002D0524263EB430394EA050F00F0A7805A
:10040000A4F10104D5F1200E0DDB02FA0EFC22FA54
:1004100005F2801841F1000103FA0EF2801843FA48
:1004200005F359410EE0A5F120050EF1200E012A39
:1004300003FA0EFC28BF4CF0020C43FA05F3C01877
:1004400051EBE37101F0004507D54FF0000EDCF1F0
:10045000000C7EEB00006EEB0101B1F5801F1BD399
:10046000B1F5001F0CD349085FEA30004FEA3C0C9D
:1004700004F101044FEA445212F5800F80F09A8093
:10048000BCF1004F08BF5FEA500C50F1000041EB97
:10049000045141EA050130BD5FEA4C0C404141EB9B
:1004A0000101013C28BFB1F5801FE9D291F0000F96
:1004B00004BF01460020B1FA81F308BF2033A3F145
:1004C0000B03B3F120020CDA0C3208DD02F1140C3C
:1004D000C2F10C0201FA0CF021FA02F10CE002F177
:1004E0001402D8BFC2F1200C01FA02F120FA0CFC70
:1004F000DCBF41EA0C019040E41AA2BF01EB0451B9
:10050000294330BD6FEA04041F3C1CDA0C340EDCB6
:1005100004F11404C4F1200220FA04F001FA02F3F9
:1005200040EA030021FA04F345EA030130BDC4F1B7
:100530000C04C4F1200220FA02F001FA04F340EAAC
:100540000300294630BD21FA04F0294630BD94F05D
:10055000000F83F4801306BF81F480110134013D44
:100560004EE77FEA645C18BF7FEA655C29D094EAB5
:10057000050F08BF90EA020F05D054EA000C04BF33
:100580001946104630BD91EA030F1EBF002100201E
:1005900030BD5FEA545C05D14000494128BF41F0BD
:1005A000004130BD14F580043CBF01F5801130BD21
:1005B00001F0004545F0FE4141F470014FF00000AC
:1005C00030BD7FEA645C1ABF194610467FEA655C5D
:1005D0001CBF0B46024650EA013406BF52EA0335FF
:1005E00091EA030F41F4002130BD00BF90F0000FED
:1005F00004BF0021704730B54FF4806404F1320429
:100600004FF000054FF0000150E700BF90F0000FE1
:1006100004BF0021704730B54FF4806404F1320408
:1006200010F0004548BF40424FF000013EE700BFD8
:1006300042004FEAE2014FEA31014FEA02701FBF68
:1006400012F07F4393F07F4F81F06051704732F09A
:100650007F4208BF704793F07F4F04BF41F40021F1
:10066000704730B54FF4607401F0004521F000414F
:100670001CE700BF50EA010208BF704730B54FF0D9
:1006800000050AE050EA010208BF704730B511F0DA
:10069000004502D5404261EB41014FF4806404F112
:1006A00032045FEA915C3FF4D8AE4FF003025FEA98
:1006B000DC0C18BF03325FEADC0C18BF033202EB1C
:1006C000DC02C2F1200300FA03FC20FA02F001FA76
:1006D00003FE40EA0E0021FA02F11444BDE600BF19
:1006E00070B54FF0FF0C4CF4E06C1CEA11541DBFC8
:1006F0001CEA135594EA0C0F95EA0C0F00F0DEF893
:100700002C4481EA030621EA4C5123EA4C5350EA77
:10071000013518BF52EA033541F4801143F48013C8
:1007200038D0A0FB02CE4FF00005E1FB02E506F059
:100730000042E0FB03E54FF00006E1FB03569CF0AE
:10074000000F18BF4EF0010EA4F1FF04B6F5007FB4
:1007500064F5407404D25FEA4E0E6D4146EB060626
:1007600042EAC62141EA55514FEAC52040EA5E50AF
:100770004FEACE2EB4F1FD0C88BFBCF5E06F1ED859
:10078000BEF1004F08BF5FEA500E50F1000041EB90
:10079000045170BD06F0004646EA010140EA02003D
:1007A00081EA0301B4EB5C04C2BFD4EB0C0541EA5F
:1007B000045170BD41F480114FF0000E013C00F374
:1007C000AB8014F1360FDEBF002001F0004170BD98
:1007D000C4F10004203C35DA0C341BDC04F11404B1
:1007E000C4F1200500FA05F320FA04F001FA05F23D
:1007F00040EA020001F0004221F0004110EBD3700A
:1008000021FA04F642EB06015EEA430E08BF20EA35
:10081000D37070BDC4F10C04C4F1200500FA04F3D8
:1008200020FA05F001FA04F240EA020001F000416A
:1008300010EBD37041F100015EEA430E08BF20EADD
:10084000D37070BDC4F1200500FA05F24EEA020E25
:1008500020FA04F301FA05F243EA020321FA04F054
:1008600001F0004121FA04F220EA020000EBD3700B
:100870005EEA430E08BF20EAD37070BD94F0000F0B
:100880000FD101F00046400041EB010111F4801F3F
:1008900008BF013CF7D041EA060195F0000F18BFF0
:1008A000704703F00046520043EB030313F4801F2C
:1008B00008BF013DF7D043EA0603704794EA0C0FE6
:1008C0000CEA135518BF95EA0C0F0CD050EA4106FC
:1008D00018BF52EA4306D1D181EA030101F0004179
:1008E0004FF0000070BD50EA410606BF10461946A1
:1008F00052EA430619D094EA0C0F02D150EA0136AD
:1009000013D195EA0C0F05D152EA03361CBF1046ED
:1009100019460AD181EA030101F0004141F0FE418C
:1009200041F470014FF0000070BD41F0FE4141F410
:10093000780170BD70B54FF0FF0C4CF4E06C1CEA10
:1009400011541DBF1CEA135594EA0C0F95EA0C0FC5
:1009500000F0A7F8A4EB050481EA030E52EA033580
:100960004FEA013100F088804FEA03334FF08055A1
:1009700045EA131343EA12634FEA022245EA1115CE
:1009800045EA10654FEA00260EF000419D4208BF7F
:10099000964244F1FD0404F5407402D25B084FEA2C
:1009A0003202B61A65EB03055B084FEA32024FF4D8
:1009B00080104FF4002CB6EB020E75EB030E22BF35
:1009C000B61A754640EA0C005B084FEA3202B6EBF5
:1009D000020E75EB030E22BFB61A754640EA5C00A4
:1009E0005B084FEA3202B6EB020E75EB030E22BF34
:1009F000B61A754640EA9C005B084FEA3202B6EB35
:100A0000020E75EB030E22BFB61A754640EADC00F3
:100A100055EA060E18D04FEA051545EA16754FEA55
:100A200006164FEAC30343EA52734FEAC2025FEA73
:100A30001C1CC0D111F4801F0BD141EA00014FF002
:100A400000004FF0004CB6E711F4801F04BF0143D3
:100A50000020B4F1FD0C88BFBCF5E06F3FF6AFAEEF
:100A6000B5EB030C04BFB6EB020C5FEA500C50F17F
:100A7000000041EB045170BD0EF0004E4EEA113102
:100A800014EB5C04C2BFD4EB0C0541EA045170BD09
:100A900041F480114FF0000E013C90E645EA060E4D
:100AA0008DE60CEA135594EA0C0F08BF95EA0C0F7B
:100AB0003FF43BAF94EA0C0F0AD150EA01347FF4C3
:100AC00034AF95EA0C0F7FF425AF104619462CE79A
:100AD00095EA0C0F06D152EA03353FF4FDAE1046FD
:100AE000194622E750EA410618BF52EA43067FF44E
:100AF000C5AE50EA41047FF40DAF52EA43057FF4DE
:100B0000EBAE12E780F0004002E000BF81F0004150
:100B100042001FBF5FEA410392EA030F7FEA226CA3
:100B20007FEA236C6AD04FEA1262D2EB1363C1BF33
:100B3000D218414048404140B8BF5B42192B88BFA2
:100B4000704710F0004F40F4000020F07F4018BFC5
:100B5000404211F0004F41F4000121F07F4118BFE5
:100B6000494292EA030F3FD0A2F1010241FA03FC8D
:100B700010EB0C00C3F1200301FA03F100F0004375
:100B800002D5494260EB4000B0F5000F13D3B0F13D
:100B9000807F06D340084FEA310102F10102FE2AAC
:100BA00051D2B1F1004F40EBC25008BF20F001001C
:100BB00040EA03007047490040EB0000013A28BFBB
:100BC000B0F5000FEDD2B0FA80FCACF1080CB2EB3E
:100BD0000C0200FA0CF0AABF00EBC25052421843BC
:100BE000BCBFD0401843704792F0000F81F4000161
:100BF00006BF80F400000132013BB5E74FEA410334
:100C00007FEA226C18BF7FEA236C21D092EA030F9F
:100C100004D092F0000F08BF0846704790EA010F19
:100C20001CBF0020704712F07F4F04D1400028BF46
:100C300040F00040704712F100723CBF00F5000028
:100C4000704700F0004343F0FE4040F4000070475E
:100C50007FEA226216BF08467FEA2363014642020A
:100C600006BF5FEA412390EA010F40F4800070471D
:100C70004FF0000304E000BF10F0004348BF4042C3
:100C80005FEA000C08BF704743F0964301464FF0FF
:100C900000001CE050EA010208BF70474FF000035B
:100CA0000AE000BF50EA010208BF704711F000439C
:100CB00002D5404261EB41015FEA010C02BF84466C
:100CC0000146002043F0B64308BFA3F18053A3F5CB
:100CD0000003BCFA8CF2083AA3EBC25310DB01FA12
:100CE00002FC634400FA02FCC2F12002BCF1004F96
:100CF00020FA02F243EB020008BF20F00100704727
:100D000002F1200201FA02FCC2F1200250EA4C007A
:100D100021FA02F243EB020008BF20EADC707047C0
:100D20004FF0FF3C06E000BF4FF0010C02E000BFB7
:100D30004FF0010C4DF804CD4FEA40024FEA410359
:100D40007FEA226C18BF7FEA236C11D001B052EA0F
:100D5000530C18BF90EA010F58BFB2EB030088BFD5
:100D6000C81738BF6FEAE17018BF40F00100704744
:100D70007FEA226C02D15FEA402C05D17FEA236C26
:100D8000E4D15FEA412CE1D05DF8040B704700BF6D
:100D9000844608466146FFE70FB5FFF7C9FF002804
:100DA00048BF10F1000F0FBD4DF808EDFFF7F4FF3D
:100DB0000CBF012000205DF808FB00BF4DF808EDD6
:100DC000FFF7EAFF34BF012000205DF808FB00BFF9
:100DD0004DF808EDFFF7E0FF94BF012000205DF81B
:100DE00008FB00BF4DF808EDFFF7D2FF94BF0120CC
:100DF00000205DF808FB00BF4DF808EDFFF7C8FFC5
:100E000034BF012000205DF808FB00BF4FEA40021C
:100E1000B2F1FE4F0FD34FF09E03B3EB12620DD928
:100E20004FEA002343F0004310F0004F23FA02F092
:100E300018BF404270474FF00000704712F1610F39
:100E400001D1420205D110F0004008BF6FF0004010
:100E500070474FF00000704753B94AB9002908BFE6
:100E600000281CBF4FF0FF314FF0FF3000F074B985
:100E7000ADF1080C6DE904CE00F006F8DDF804E0F1
:100E8000DDE9022304B070472DE9F047089E0D46C6
:100E900004468846002B4DD18A42944668D9B2FA5E
:100EA00082F252B101FA02F3C2F1200120FA01F1FB
:100EB0000CFA02FC41EA030894404FEA1C45210C5D
:100EC000B8FBF5FE1FFA8CF705FB1E8341EA0343CE
:100ED0000EFB07F199420BD91CEB03030EF1FF3017
:100EE00080F01E81994240F21B81AEF1020E6344F4
:100EF0005B1AA4B2B3FBF5F005FB103344EA0344DC
:100F000000FB07F7A7420AD91CEB040400F1FF33EA
:100F100080F00881A74240F2058164440238E41B56
:100F200040EA0E4000211EB1D4400023C6E9004330
:100F3000BDE8F0878B4208D9002E00F0EE8000213A
:100F4000C6E900050846BDE8F087B3FA83F1002939
:100F50004AD1AB4202D3824200F2F980841A65EB97
:100F6000030301209846002EE2D0C6E90048DFE7DF
:100F700002B9FFDEB2FA82F2002A40F09180A1EBC2
:100F80000C054FEA1C471FFA8CFE0121B5FBF7F355
:100F900007FB1350250C45EA00450EFB03F0A84261
:100FA00008D91CEB050503F1FF3802D2A84200F274
:100FB000CB8043462D1AA4B2B5FBF7F007FB1055C2
:100FC00044EA05440EFB00FEA64508D91CEB0404C8
:100FD00000F1FF3502D2A64500F2BB802846A4EB03
:100FE0000E0440EA03409EE7C1F120078B4022FA3D
:100FF00007FC4CEA030C20FA07F405FA01F31C4342
:10100000FD404FEA1C4900FA01F3B5FBF9F8200C4A
:101010001FFA8CFE09FB185540EA054508FB0EF047
:10102000A84202FA01F20BD91CEB050508F1FF3AC0
:1010300080F08880A84240F28580A8F102086544CB
:101040002D1AA4B2B5FBF9F009FB105544EA054589
:1010500000FB0EFEAE4508D91CEB050500F1FF3480
:101060006CD2AE456AD90238654440EA0840A0FB1C
:101070000294A5EB0E05A542C846A64656D353D00A
:101080005EB1B3EB080265EB0E0505FA07F722FA2D
:1010900001F3CD401F43C6E900750021BDE8F0878C
:1010A000C2F1200320FA03F10CFA02FC25FA03F343
:1010B00095400D434FEA1C471FFA8CFEB3FBF7F136
:1010C00007FB11302B0C43EA004301FB0EF0984262
:1010D00004FA02F408D91CEB030301F1FF382FD204
:1010E00098422DD9023963441B1AADB2B3FBF7F015
:1010F00007FB103345EA034500FB0EF3AB4208D96A
:101100001CEB050500F1FF3816D2AB4214D90238AA
:101110006544ED1A40EA014138E73146304607E7B9
:101120008646E5E61846FAE64B45A9D2B9EB020831
:1011300064EB0C0E0138A3E74046EAE7204694E74B
:101140004146D1E7D0467BE7023B654432E708469B
:1011500009E76444023842E7704700BF000000001E
:1011600001F0FF01102A2BDB10F0070F08D010F858
:10117000013B013A8B422DD010F0070F42B3F6D15C
:10118000F0B441EA012141EA014122F007047FF075
:1011900000070023F0E80256083C85EA010586EACC
:1011A000010685FA47F5A3FA87F586FA47F6A5FA08
:1011B00087F68EB9EED1F0BC01F0FF0102F0070214
:1011C00032B110F8013B013A83EA010313B1F8D1BF
:1011D0000020704701387047002D06BF35460338A0
:1011E000073815F0010F07D1013015F4807F02BFD9
:1011F000013015F4C03F0130F0BC0138704700BF2A
:10120000844641EA000313F003036DD1403A41D311
:1012100051F8043B40F8043B51F8043B40F8043BD0
:1012200051F8043B40F8043B51F8043B40F8043BC0
:1012300051F8043B40F8043B51F8043B40F8043BB0
:1012400051F8043B40F8043B51F8043B40F8043BA0
:1012500051F8043B40F8043B51F8043B40F8043B90
:1012600051F8043B40F8043B51F8043B40F8043B80
:1012700051F8043B40F8043B51F8043B40F8043B70
:1012800051F8043B40F8043B51F8043B40F8043B60
:10129000403ABDD2303211D351F8043B40F8043B00
:1012A00051F8043B40F8043B51F8043B40F8043B40
:1012B00051F8043B40F8043B103AEDD20C3205D310
:1012C00051F8043B40F8043B043AF9D2043208D008
:1012D000D2071CBF11F8013B00F8013B01D30B887A
:1012E00003806046704700BF082A13D38B078DD058
:1012F00010F003038AD0C3F10403D21ADB071CBF2A
:1013000011F8013B00F8013B80D331F8023B20F893
:10131000023B7BE7043AD9D3013A11F8013B00F8CC
:10132000013BF9D20B7803704B7843708B78837054
:101330006046704700000000000000000000000050
:1013400090F800F06DE9024520F007016FF0000C05
:1013500010F0070491F820F040F049804FF00004AD
:101360006FF00700D1E9002391F840F000F1080088
:1013700082FA4CF2A4FA8CF283FA4CF3A2FA8CF3C0
:101380004BBBD1E9022382FA4CF200F10800A4FA27
:101390008CF283FA4CF3A2FA8CF3E3B9D1E904237B
:1013A00082FA4CF200F10800A4FA8CF283FA4CF3B2
:1013B000A2FA8CF37BB9D1E9062301F1200182FA6C
:1013C0004CF200F10800A4FA8CF283FA4CF3A2FA72
:1013D0008CF3002BC6D0002A04BF04301A4612BA80
:1013E000B2FA82F2FDE8024500EBD2007047D1E983
:1013F000002304F00305C4F100004FEAC50514F012
:10140000040F91F840F00CFA05F562EA05021CBFE2
:1014100063EA050362464FF00004A9E74FF0FF3C82
:1014200006E000BF4FF0010C02E000BF4FF0010CDE
:101430004DF804CD4FEA410C7FEA6C5C4FEA430C57
:1014400018BF7FEA6C5C1BD001B050EA410C0CBFA6
:1014500052EA430C91EA030F02BF90EA020F002008
:10146000704710F1000F91EA030F58BF994208BF6F
:1014700090422CBFD8176FEAE37040F0010070472C
:101480004FEA410C7FEA6C5C02D150EA013C07D183
:101490004FEA430C7FEA6C5CD6D152EA033CD3D0CE
:1014A0005DF8040B704700BF8446104662468C46C8
:1014B0001946634600E000BF01B5FFF7B7FF0028FB
:1014C00048BF10F1000F01BD4DF808EDFFF7F4FF24
:1014D0000CBF012000205DF808FB00BF4DF808EDAF
:1014E000FFF7EAFF34BF012000205DF808FB00BFD2
:1014F0004DF808EDFFF7E0FF94BF012000205DF8F4
:1015000008FB00BF4DF808EDFFF7CEFF94BF0120A8
:1015100000205DF808FB00BF4DF808EDFFF7C4FFA1
:1015200034BF012000205DF808FB00BF4FEA410CEA
:101530007FEA6C5C02D150EA013C0AD14FEA430CCD
:101540007FEA6C5C02D152EA033C02D14FF000000A
:1015500070474FF0010070474FEA410212F5001248
:1015600015D211D56FF47873B3EB625212D94FEAEA
:10157000C12343F0004343EA505311F0004F23FAD4
:1015800002F018BF404270474FF00000704750EA29
:10159000013005D111F0004008BF6FF000407047E6
:1015A0004FF00000704700BF08B50E480E4B0360B7
:1015B0000723436000238360C3604FF480320261DD
:1015C0004FF4001242610376012242768376C3769D
:1015D0000377437700F0EAFA00B908BD00F062F93A
:1015E000FBE700BFE00900200064004008B50E489A
:1015F0000E4B03600723436000238360C3604FF4F6
:10160000803202614FF40012426103760122427679
:101610008376C3760377437700F0C8FA00B908BD34
:1016200000F040F9FBE700BF080A00200068004016
:1016300030B58BB000230593069307930893099365
:101640000368404A934204D03F4A934238D00BB0DB
:1016500030BD3E4A136801331360012B23D00025AF
:1016600001953B4B1A6B42F001021A631B6B03F0AE
:1016700001030193019B4FF4C0530593022306938A
:1016800001240794032308930923099305A93148EA
:1016900000F0D6FE2A462146142000F077FE1420E2
:1016A00000F0ACFED3E700230093294B1A6C42F004
:1016B00000721A641B6C03F000730093009BCEE76A
:1016C00000230293224B1A6C42F080621A641B6C56
:1016D00003F080630293029B1C4A1368013313607A
:1016E000012B22D000240494194B1A6B42F0020201
:1016F0001A631B6B03F002030493049B602305939E
:1017000002230693012307930323089309230993D4
:1017100005A9114800F094FE22462146402000F021
:1017200035FE402000F06AFE91E700230393084B4A
:101730001A6C42F000721A641B6C03F0007303937E
:10174000039BCFE70064004000680040DC090020F4
:1017500000380240000002400004024084B0002231
:101760000092154B196B41F004011963196B01F0DC
:101770000401009100990192196B41F080011963F5
:10178000196B01F08001019101990292196B41F0EE
:1017900001011963196B01F0010102910299039291
:1017A0001A6B42F002021A631B6B03F002030393ED
:1017B000039B04B0704700BF0038024030B595B0BD
:1017C0003022002108A801F029FE0024039404948B
:1017D00005940694079401941B4B1A6C42F08052B6
:1017E0001A641B6C03F080530193019B0294174B06
:1017F0001A6842F480421A601B6803F48043029323
:10180000029B0225089501230B9310230C930E9540
:101810000F9408231093A823119312950423139374
:1018200008A800F0F5FE0F230393049505944FF4E8
:10183000A05306934FF480530793052103A801F0AA
:1018400049F915B030BD00BF0038024000700040BB
:1018500008B500F06BF9FFF7B1FFFFF77FFFFFF767
:10186000A3FEFFF7C3FE00F0BDF801F0A5FC01F0F8
:10187000B9FC01F099FD01F077FD01F0F9FC074C8E
:10188000206B01F0D7FC2063FFF7C0FA01B20448D7
:1018900001F066FC052000F075F9EEE7000B002072
:1018A000E00900207047000082B0002100910B4B3E
:1018B0005A6C42F480425A645A6C02F4804200929C
:1018C000009A01911A6C42F080521A641B6C03F06A
:1018D00080530193019B02B0704700BF0038024063
:1018E0007047FEE7FEE7FEE7FEE770477047704788
:1018F00008B500F035F908BD08B5024800F00FFC46
:1019000008BD00BFE009002008B5024800F007FC50
:1019100008BD00BF080A00200120704708B501F08B
:1019200053FD162303604FF0FF3008BD08B54FF09C
:10193000FF31FFF7F3FFFEE770B50C4616460025B2
:1019400006E0AFF30080214601F8010B01350C469B
:10195000B542F6DB304670BD70B50C461646002524
:1019600004E014F8010BAFF300800135B542F8DB59
:10197000304670BD4FF0FF3070474FF400534B605E
:1019800000207047012070470020704710B50346C3
:101990000C4A0D490D48006840B10C4800680344EA
:1019A000521A934206D8094A136010BD0748084CE2
:1019B0000460F2E701F008FD0C2303604FF0FF30F4
:1019C000F3E700BF0000022000040000940A00209A
:1019D000D00B0020024B4FF000629A60704700BFAE
:1019E00000ED00E008B50A480A4B03604FF4E1330C
:1019F000436000238360C36003610C224261836102
:101A0000C36101F05DFA00B908BDFFF74BFFFBE7CA
:101A1000980A00200010014000B589B0002303930C
:101A20000493059306930793026803F1804303F53B
:101A300088339A4202D009B05DF804FB002101917D
:101A400003F594335A6C42F010025A645A6C02F057
:101A500010020192019A02911A6B42F001021A637C
:101A60001B6B03F001030293029B4FF4C0630393CB
:101A700002230493032306930723079303A9024831
:101A800000F0DEFCD7E700BF00000240DFF834D0F2
:101A9000002103E00C4B5B58435004310B480C4BC6
:101AA00042189A42F6D30B4A02E0002342F8043B64
:101AB000094B9A42F9D3FFF78DFF01F08BFCFFF73A
:101AC000C7FE704700000220DC96000800000020DE
:101AD000C0090020C0090020CC0B0020FEE7000058
:101AE00010B504460E4B18784FF47A73B3FBF0F33D
:101AF0000C4A1068B0FBF3F000F08EFC68B90F2CB4
:101B000001D901200AE0002221464FF0FF3000F009
:101B10003DFC054B1C60002000E0012010BD00BF13
:101B200008000020040000200C00002008B50B4B2A
:101B30001A6842F400721A601A6842F480621A60ED
:101B40001A6842F480721A60032000F00DFC002035
:101B5000FFF7C6FFFFF7A8FE002008BD003C0240CB
:101B6000034A1168034B1B780B441360704700BF96
:101B7000D80A002008000020014B1868704700BFF9
:101B8000D80A002038B50446FFF7F6FF0546B4F141
:101B9000FF3F02D0044B1B781C44FFF7EDFF401BB6
:101BA000A042FAD338BD00BF08000020002800F092
:101BB000A18038B5044690F82030D3B1226813686C
:101BC00023F002031360FFF7D7FF054623685A6826
:101BD00012F0020F10D0FFF7CFFF401B0A28F5D9F3
:101BE000636A43F400336362052384F820300120E4
:101BF00038BDFFF71DFDE1E71A6842F001021A60E7
:101C0000FFF7BAFF054623685A6812F0010F0DD19D
:101C1000FFF7B2FF401B0A28F5D9636A43F400338B
:101C20006362052384F820300120E1E7227E012A47
:101C30003DD01A6822F080021A60637E012B3BD0EF
:101C40002268136823F040031360A37E012B39D070
:101C50002268136823F020031360E37E012B37D042
:101C60002268136843F010031360237F012B35D0E3
:101C70002268136823F008031360637F012B33D0BD
:101C80002268136823F004031360A368E268134317
:101C900022691343626913436268013A216813435E
:101CA000CB6100206062012384F82030A0E71A682D
:101CB00042F080021A60C0E72268136843F04003D4
:101CC0001360C2E72268136843F020031360C4E77F
:101CD0002268136823F010031360C6E722681368B4
:101CE00043F008031360C8E72268136843F0040355
:101CF0001360CAE70120704790F82030013BDBB247
:101D0000012B05D9436A43F48023436201207047C5
:101D100010B5474BD3F8002242F00102C3F800226D
:101D2000D3F8002222F47C52C3F80022D3F8002218
:101D3000486A42EA0022C3F800224A6902F01F0200
:101D4000012000FA02F2D3F81C026FEA020C20EA2A
:101D50000200C3F81C02CB69CBB9354BD3F80C0297
:101D60000CEA0000C3F80C028C884869D1F80CE03A
:101D700044EA0E44483043F830408C68088840EA12
:101D800004404C6904F1480E03EBCE035860CB6964
:101D9000012B1ED08B69002B35D12548D0F8043299
:101DA0000CEA0303C0F804320B699BBB2048D0F84F
:101DB00014320CEA0303C0F814320B6A012B30D042
:101DC0001B4AD2F8003223F00103C2F8003200208F
:101DD00010BD174BD3F80C021043C3F80C028C88CB
:101DE0004869D1F800E044EA0E44483043F83040F6
:101DF00088894C69D1F808E040EA0E40483403EB8A
:101E0000C4035860C6E70A48D0F804321343C0F848
:101E10000432C9E70648D0F814321343C0F814322C
:101E2000CBE70349D1F81C321A43C1F81C22C7E79B
:101E30000064004070B5044690F82050EDB2012DCA
:101E400006D0436A43F4002343620125284670BD4F
:101E5000022380F820300268136823F00103136026
:101E6000FFF78AFE064623685B6813F0010F0CD06B
:101E7000FFF782FE831B0A2BF5D9636A43F4003314
:101E80006362052384F82030E0E700256562DDE722
:101E900030B590F820C00468A4680CF1FF3C5FFAEC
:101EA0008CFCBCF1010F6BD814F0E05F62D0C4F37E
:101EB000016CBCF1020F05D9436A43F4000343628D
:101EC000012062E0012404FA0CF41C608B68002BF2
:101ED0003DD10D68CB68046843EA45550CF1180301
:101EE0001B01E55003680C690CF1180E03EB0E138F
:101EF0005C600B7D012B35D0D17993791B0443EACB
:101F00000163517943EA012314790168234301EB0A
:101F10000C11C1F88C31D17893781B0443EA01632A
:101F2000517843EA0123117802680B4302EB0C124B
:101F3000C2F8883102680CF1180C4FEA0C1C52F8F8
:101F40000C3043F0010342F80C3000201DE04C68D7
:101F500043EAC403CC6823430CF118042401056848
:101F60002B51BFE7036803EB0E13596841F48071EE
:101F70005960C1E7436A43F400134362012004E05F
:101F8000436A43F480234362012030BD90F820C0AF
:101F90000CF1FF3C5FFA8CFCBCF1010F00F29B805E
:101FA00010B451B90468E46814F0030F10D1436A07
:101FB00043F40013436201207BE00468246914F0B9
:101FC000030F05D1436A43F400134362012070E01C
:101FD00001F11B042401D0F800C05CF8044004F0B7
:101FE00004049460002C66D101F11B042401D0F894
:101FF00000C05CF80440640D1460046801F11B0C1F
:102000004FEA0C1C54F80C4004F00204D46004683D
:102010006444646804F00F041461046864446468F0
:10202000C4F307249461046864446468240C546114
:10203000026802EB0112D2F8B8211A70026802EBB2
:102040000112D2F8B821C2F307225A70026802EBDB
:102050000112D2F8B821C2F307429A70026802EB6B
:102060000112D2F8B821120EDA70026802EB0112E6
:10207000D2F8BC211A71026802EB0112D2F8BC211D
:10208000C2F307225A71026802EB0112D2F8BC2196
:10209000C2F307429A71026802EB0112D2F8BC2126
:1020A000120EDA7189B90268D36843F02003D36055
:1020B000002010BC704701F11B042401D0F800C0BF
:1020C0005CF80440E408546097E70268136943F041
:1020D00020031361ECE7436A43F480234362012049
:1020E000704790F82030013BDBB2012B05D9436AE1
:1020F00043F4802343620120704702685369194307
:1021000051610020704770477047704770477047B3
:1021100070477047704770477047704770472DE9A8
:10212000F84F054603685C69D3F804809F68D3F8CC
:102130000CB0D3F810A0D3F8189014F001063BD0DF
:1021400017F0010616D001229A6017F0020F08D18D
:1021500017F0040F0CD117F0080606D04FF4805684
:1021600008E0FFF7D0FF002604E0FFF7CFFF01E013
:102170004FF4006617F4807F0DD02B684FF4807207
:102180009A6017F4007F40F0868017F4806F00F0AB
:10219000868046F4005617F4803F0DD02B684FF42C
:1021A00080329A6017F4003F40F0838017F4802F4C
:1021B00000F0838046F4004614F0080F07D01BF0AF
:1021C000100F04D046F400762B681022DA6014F069
:1021D000040F02D01BF0080F79D114F0020F04D0C5
:1021E0002B68DB6813F0030F78D114F0400F07D091
:1021F0001AF0100F04D046F480662B6810221A6182
:1022000014F0200F02D01AF0080F6BD114F0100F49
:1022100004D02B681B6913F0030F6AD114F4003F3C
:1022200002D018F0100F68D114F4803F02D018F0DB
:10223000080F69D114F4004F7AD018F0040F74D04D
:1022400014F4807F04D019F0010F01D046F001068C
:1022500014F4007F04D019F0020F01D046F00206FA
:1022600014F4806F04D019F0040F01D046F0040676
:1022700014F4006F59D019F0700956D0B9F1400F1D
:1022800065D058D8B9F1200F5ED0B9F1300F42D1E6
:1022900046F0200644E02846FFF736FF7BE717F4B8
:1022A000006F02D046F4804675E72846FFF72FFFFF
:1022B00071E72846FFF729FF7EE717F4002F02D0C9
:1022C00046F4803678E72846FFF722FF74E72B684C
:1022D0000822DA602846FFF71CFF7EE7284600F058
:1022E000BBFE82E72B6808221A612846FFF713FF1E
:1022F0008CE72846FFF70EFF90E72B6810225A6004
:102300002846FFF709FF8FE72B6808225A60284606
:10231000FFF703FF8EE7B9F1100F01D146F0080671
:102320002A68936923F0700393612B6804225A6032
:102330009EB9BDE8F88FB9F1500F0BD0B9F1600F1D
:10234000EED146F48076EBE746F01006E8E746F07B
:102350004006E5E746F08006E2E76B6A1E436E62E0
:102360002846FFF7DBFEE4E7074AD36823F4E0637F
:102370001B041B0C000200F4E060034343F0BF6346
:1023800043F40033D360704700ED00E000B5194B13
:10239000DB68C3F30223C3F1070CBCF1040F28BFB1
:1023A0004FF0040C03F1040EBEF1060F18D9033BE5
:1023B0004FF0FF3E0EFA0CFC21EA0C0199400EFA98
:1023C00003F322EA0303194300280BDB0901C9B216
:1023D00000F1604000F5614080F800135DF804FBF7
:1023E0000023E5E700F00F000901C9B2024B1954C0
:1023F000F4E700BF00ED00E014ED00E0002807DB8B
:1024000000F01F02400901239340024A42F82030A5
:10241000704700BF00E100E00138B0F1807F0BD2CF
:102420004FF0E0235861054AF02182F82310002084
:10243000986107221A6170470120704700ED00E0A3
:1024400000230F2B00F2DA80F0B583B03AE00722C8
:1024500000E00022AA4032430234694D45F82420AE
:10246000684A14686FEA0C0224EA0C054E6816F4F8
:10247000803F01D04CEA0405624C2560646802EAA2
:1024800004054E6816F4003F01D04CEA04055D4C8B
:102490006560A46802EA04054E6816F4801F01D046
:1024A0004CEA0405574CA560E46822404D6815F4D9
:1024B000001F01D04CEA0402524CE26001330F2BA2
:1024C00000F29A8001229A400C6804EA020C32EA77
:1024D0000404F3D14C68651E012D03D9112C01D0E1
:1024E000122C12D185685E000324B44025EA04054D
:1024F000CC68B4402C438460456825EA02054C68EA
:10250000C4F300129A402A434260C5684FEA430E62
:10251000032404FA0EF4E24325EA04058C6804FA65
:102520000EF42C43C4604C68022C01D0122C0FD145
:10253000DD08083550F8257003F00704A6000F24C5
:10254000B44027EA04070C69B4403C4340F82540F6
:10255000046814404A6802F0030202FA0EF22243B1
:1025600002604A6812F0805FA8D000220192264AD9
:10257000546C44F480445464526C02F480420192DE
:10258000019A9C08A51C1E4A52F8256003F003021C
:1025900095000F22AA4026EA02061C4A90423FF408
:1025A00058AF02F5806290421AD002F580629042E4
:1025B00018D002F58062904216D002F580629042F7
:1025C00014D002F58062904212D002F580629042EF
:1025D00010D002F5806290423FF439AF082239E70B
:1025E000012237E7022235E7032233E7042231E7ED
:1025F00005222FE706222DE703B0F0BD704700BF8C
:1026000000380140003C0140003802400000024018
:10261000002800F0DA8170B582B00446036813F038
:10262000010F3BD09F4B9B6803F00C03042B2CD075
:102630009C4B9B6803F00C03082B21D06368B3F517
:10264000803F4FD0B3F5A02F52D0964B1A6822F49A
:1026500080321A601A6822F480221A606368002BA4
:1026600050D0FFF789FA05468E4B1B6813F4003FE4
:1026700014D1FFF781FA401B6428F5D90320ABE1A0
:10268000884B5B6813F4800FD8D0864B1B6813F41B
:10269000003F03D06368002B00F09981236813F09A
:1026A000020F54D07F4B9B6813F00C0F3ED07D4B34
:1026B0009B6803F00C03082B33D0E368002B68D031
:1026C000794B01221A60FFF757FA0546754B1B68D4
:1026D00013F0020F54D1FFF74FFA401B0228F5D92F
:1026E000032079E16F4A136843F480331360B5E740
:1026F0006C4B1A6842F480221A601A6842F48032E5
:102700001A60ABE7FFF738FA0546664B1B6813F40F
:10271000003FC3D0FFF730FA401B6428F5D90320EF
:102720005AE1604B5B6813F4800FC6D15D4B1B68A8
:1027300013F0020F03D0E368012B40F04A81594A9D
:10274000136823F0F803216943EAC1031360236887
:1027500013F0080F42D063696BB3534B0122C3F8E7
:10276000802EFFF709FA05464E4B5B6F13F0020F00
:1027700034D1FFF701FA401B0228F5D903202BE1E1
:10278000484A136823F0F803216943EAC103136040
:10279000DDE7454B00221A60FFF7EEF90546414B95
:1027A0001B6813F0020FD2D0FFF7E6F9401B022896
:1027B000F5D9032010E13C4B0022C3F8802EFFF72F
:1027C000DBF90546374B5B6F13F0020F06D0FFF7BE
:1027D000D3F9401B0228F5D90320FDE0236813F04C
:1027E000040F77D02F4B1B6C13F0805F33D1002385
:1027F00001932C4B1A6C42F080521A641B6C03F04C
:1028000080530193019B0125284B1B6813F4807FA3
:1028100023D0A368012B34D0052B38D0214B1A6F5D
:1028200022F001021A671A6F22F004021A67A368E5
:10283000002B3DD0FFF7A0F906461A4B1B6F13F093
:10284000020F46D1FFF798F9801B41F28833984276
:10285000F3D90320C0E00025D6E7144A136843F4F7
:1028600080731360FFF788F90646104B1B6813F45A
:10287000807FCED1FFF780F9801B0228F5D9032095
:10288000AAE0084A136F43F001031367CFE7054B33
:102890001A6F42F004021A671A6F42F001021A67B7
:1028A000C5E700BF0038024000004742007000400A
:1028B000FFF762F906464F4B1B6F13F0020F08D06B
:1028C000FFF75AF9801B41F288339842F3D903206D
:1028D00082E0E5B9A369002B7DD0464A926802F0F8
:1028E0000C02082A51D0022B17D0434B00221A6643
:1028F000FFF742F904463F4B1B6813F0007F42D0BC
:10290000FFF73AF9001B0228F5D9032064E0394AA1
:10291000136C23F080531364DCE7374B00221A66F4
:10292000FFF72AF90546334B1B6813F0007F06D0EA
:10293000FFF722F9401B0228F5D903204CE0E36998
:10294000226A1343626A43EA8213A26A5208013A76
:1029500043EA0243E26A43EA0263264A5360264B93
:1029600001221A66FFF708F90446224B1B6813F090
:10297000007F06D1FFF700F9001B0228F5D90320DC
:102980002AE0002028E0002026E0012B26D0194B69
:102990005B6803F48001E269914221D103F03F02B8
:1029A000216A8A421ED1616A47F6C0721A408A4281
:1029B0001AD103F44032A16A8A4217D103F070633E
:1029C000E26A934214D1002006E001207047012002
:1029D00002E0012000E0002002B070BD0120FBE712
:1029E0000120F9E70120F7E70120F5E70120F3E7EF
:1029F0000120F1E7003802400000474208B5324BA1
:102A00009B6803F00C03042B59D0082B59D12E4B93
:102A10005A6802F03F025B6813F4800F2CD02A4BF7
:102A20005968C1F3881C00231CEB0C0143EB030025
:102A300011EB0C0140F10000000140EA11700901A6
:102A4000B1EB0C0160F10000C00040EA5170C90018
:102A5000B1EB0C0160F100004FEAC03CC8034CEA46
:102A60005141FEF7F9F9184B5B68C3F30143013399
:102A70005B00B0FBF3F025E0134B5968C1F3881CF1
:102A80004FEA4C11B1EB0C006EEB0E0E4FEA8E13B9
:102A900043EA90638101091A63EB0E03DB0043EA0A
:102AA0005173C90011EB0C0C43F100039902002390
:102AB0004FEA8C2041EA9C51FEF7CEF9D3E7034858
:102AC00000E0034808BD00BF003802400080BB00A2
:102AD0000024F400002800F09B8070B50D460446E9
:102AE0004F4B1B6803F00F038B4208D2CBB24C4A0A
:102AF0001370136803F00F038B4240F08B80236840
:102B000013F0020F17D013F0040F04D0454A936856
:102B100043F4E0539360236813F0080F04D0414A54
:102B2000936843F4604393603E4A936823F0F00354
:102B3000A1680B439360236813F0010F32D06368E0
:102B4000012B21D09A1E012A25D9364A126812F08B
:102B5000020F61D033498A6822F0030213438B606D
:102B6000FFF70AF806462F4B9B6803F00C036268D8
:102B7000B3EB820F16D0FEF7FFFF801B41F28833C4
:102B80009842F0D9032042E0264A126812F4003F2E
:102B9000E0D101203BE0234A126812F0007FD9D136
:102BA000012034E01E4B1B6803F00F03AB4207D932
:102BB000EAB21B4B1A701B6803F00F03AB422DD116
:102BC000236813F0040F06D0164A936823F4E053E9
:102BD000E1680B439360236813F0080F07D0114A94
:102BE000936823F46043216943EAC1039360FFF7CC
:102BF00005FF0C4B9B68C3F303130B4AD35CD8400F
:102C00000A4B18600A4B1868FEF76AFF002070BD77
:102C1000012070470120FAE70120F8E70120F6E7DC
:102C2000003C024000380240A89200080400002046
:102C30000C000020014B1868704700BF0400002002
:102C400008B5FFF7F7FF044B9B68C3F38223034AE1
:102C5000D35CD84008BD00BF00380240B8920008DD
:102C600008B5FFF7E7FF044B9B68C3F34233034A01
:102C7000D35CD84008BD00BF00380240B8920008BD
:102C800038B504460268136923F44053C1680B4306
:102C9000136183680269134342691343C2691A438B
:102CA0000168CB6823F4164323F00C031343CB6075
:102CB0000268536923F4407381690B435361C3690C
:102CC000B3F5004F35D00368604A934200F091801D
:102CD00002F58062934200F08C80FFF7B1FF002183
:102CE000031849411B1841F10001C90041EA537121
:102CF000DB00181863684FEA83024FEA937341F1CF
:102D00000001FEF7A9F8524DA5FB003251096423DA
:102D100003FB11031B013233A5FB03235B0903F003
:102D2000F00202EB011203F00F03216813448B60E1
:102D30008AE00368454A93422FD002F580629342AD
:102D40002BD0FFF77DFF0023021843EB030112187D
:102D500041F10001C90041EA5271D200101841F15D
:102D60000001626892185B41FEF776F8384DA5FBCA
:102D700000325109642303FB1103DB003233A5FB4E
:102D800003235B095A0002F4F87202EB011203F00C
:102D90000703216813448B6056E0FFF761FF0023AF
:102DA000021843EB0301121841F10001C90041EA86
:102DB0005271D200101841F10001626892185B4113
:102DC000FEF74AF8224DA5FB00325109642303FBAC
:102DD0001103DB003233A5FB03235B095A0002F425
:102DE000F87202EB011203F00703216813448B60B1
:102DF0002AE0FFF735FF0021031849411B1841F174
:102E00000001C90041EA5371DB00181863684FEAFA
:102E100083024FEA937341F10001FEF71DF80C4D58
:102E2000A5FB00325109642303FB11031B0132335C
:102E3000A5FB03235B0903F0F00202EB011203F090
:102E40000F03216813448B6038BD00BF00100140A0
:102E50001F85EB512DE9F84305460F461646994666
:102E6000DDF820802C68246837EA04030CBF4FF09B
:102E7000010C4FF0000CB4451FD1B8F1FF3FF1D069
:102E8000B8F1000F05D0FEF777FEA0EB0900404532
:102E9000E8D92A68D36823F4D073D3602A685369C9
:102EA00023F001035361202385F8393085F83A3047
:102EB000002385F83830032000E00020BDE8F883C7
:102EC00058B310B5044690F839300BB3242384F876
:102ED00039302268D36823F40053D3602046FFF7CB
:102EE000CFFE2268136923F490431361226853696B
:102EF00023F02A0353612268D36843F40053D3605C
:102F00000020E063202384F8393084F83A3010BD83
:102F100080F83830FEF780FDD8E7012070472DE9B2
:102F2000F04383B01E4690F83930DBB2202B56D1E7
:102F300004460D469046002955D0002A55D090F8F9
:102F40003830012B53D0012380F838304FF000097E
:102F5000C0F83C90212380F83930FEF70DFE07467B
:102F6000A4F82480A4F8268084F8389010E0009615
:102F70003B46002280212046FFF76CFF002838D115
:102F80002B882268C3F3080353602369CBB9023549
:102F9000E38C9BB2BBB1E28C92B2013A92B2E28472
:102FA000A368B3F5805FE2D000963B460022802103
:102FB0002046FFF74FFFF0B915F8012B23685A6040
:102FC000E6E70135E4E700963B4600224021204633
:102FD000FFF740FF88B9202384F8393000E0022051
:102FE00003B0BDE8F0830120FAE70120F8E70220F2
:102FF000F6E70320F4E70320F2E70320F0E7000000
:1030000010B58AB00122089200230693079200931C
:10301000019302930393059304930E4C6946204653
:10302000FEF76AFE2046FEF705FF02212046FFF765
:1030300058F80E230993059369462046FEF75CFE77
:103040002046FEF7F7FE02212046FFF74AF80AB0B5
:1030500010BD00BFE00900200268384B9A4200D042
:10306000704710B58AB001AB03AA00213448FEF7BF
:103070008DFF039A40F205239A4201D00AB010BD99
:10308000304B1B6803BB9DF804209DF8053043EAD4
:1030900002232D4A93809DF806009DF8071041EA0F
:1030A0000021D1809DF808009DF8091041EA002117
:1030B00011819DF80A109172244A1360244A13600A
:1030C000204B01221A60D9E7214C2268214B1A605B
:1030D0009DF804109DF8053043EA01231A498B80BE
:1030E0009DF806C09DF8070040EA0C20C8809DF8B6
:1030F00008C09DF8090040EA0C2008819DF80A00EC
:10310000887223609A1AB2F5805F0EDB12490A6852
:10311000013A0A60104A1268C2EB423213440B4A69
:1031200012689B1A0D4A1360A8E712F5805FF1DC64
:1031300009490A6801320A60ECE700BF00640040F8
:10314000E0090020F40A0020E80A0020E00A00203C
:10315000DC0A0020E40A0020FC0A0020F80A002013
:1031600000B589B000230093019340F2FF12029250
:10317000049305930823069341FA03F38DF8003076
:103180008DF8011001236A4602A90348FEF780FE6C
:1031900009B05DF804FB00BFE009002010B504464B
:1031A000FEF748FE2268536943F00203536102218F
:1031B0002046FEF796FF10BD08B50448FFF7EEFF66
:1031C0000348FFF7EBFFFFF71BFF08BDE0090020F6
:1031D000080A0020016042608360009BC360019B7D
:1031E0000361704710B582B000240A4B019300932D
:1031F0002346224608490948FFF7ECFF084B019394
:103200000094084B084A09490948FFF7E3FF02B058
:1032100010BD00BF0060EA4600004843340B0020A8
:103220000000A043000020410AD7233C0000844353
:10323000000B002070B505460C4B1E884C2006FB89
:1032400000F0FDF719FD04462946FDF7B7FD58B912
:103250006FF04B0006FB00F0FDF70EFD044629461B
:10326000FDF7CAFD00B92C46204670BD00000020C5
:1032700038B52F4B18684003FDF7FEFC04462D4B74
:103280001868FDF7F9FC01462046FDF73FFC0446AF
:10329000294D2968FDF73CFC28602849FDF7ACFD65
:1032A00008B1264A2A602649234B1868FDF786FD97
:1032B00010B1214B224A1A60224B19682046FCF7B4
:1032C0009FFF05461C4B19681F4B1868FCF798FFB9
:1032D00001462846FDF71CFC05461C4B1968204694
:1032E000FDF714FC1A4B1968FCF78AFF01462846C3
:1032F000FDF70EFC174B18631749FDF77DFD10B164
:10330000144B154A1A632046FDF792F902460B4604
:10331000124D1349284600F0D3F84FF6FF730A22E6
:1033200029461048FFF7FBFD084B1C6038BD00BF65
:103330006C0B0020F80A0020700B002000803B443A
:1033400000803BC4800B00207C0B0020740B00200D
:10335000780B0020000B002000409C46300A002023
:10336000C0920008980A0020074B084A1A60084BD0
:10337000084A1A60084B094A1A60094B00221A6071
:10338000084B0A221A607047800B0020000002439D
:103390007C0B00200AD7233C780B00200000A041C2
:1033A000680B00206C0B002088B0064B01930023B3
:1033B000029303930493059300220692079308B0A7
:1033C000704700BF0000A041014B1868704700BF64
:1033D0001000002070B50D4E0D4D761BB61006D0B6
:1033E000002455F8043B01349847A642F9D1094E10
:1033F000094D761B05F04CFFB61006D0002455F899
:10340000043B01349847A642F9D170BDD09600081C
:10341000D0960008D8960008D0960008830730B5EB
:1034200048D0541E002A3FD0CAB2034601E0013CF6
:103430003AD303F8012B9D07F9D1032C2DD9CDB236
:1034400045EA05250F2C45EA054536D9A4F11002B9
:1034500022F00F0C03F1200EE6444FEA121C03F198
:10346000100242E9045542E9025510327245F8D182
:103470000CF1010214F00C0F03EB021204F00F0C1C
:1034800013D0ACF1040323F003030433134442F8D4
:10349000045B9342FBD10CF003042CB1CAB21C4470
:1034A00003F8012B9C42FBD130BD64461346002C2F
:1034B000F4D1F9E703461446BFE71A46A446E0E70D
:1034C0000EB410B59DB06FF000411FABCDE9060101
:1034D0000491094953F8042B0290084C08680193A1
:1034E00002A9059400F00CF8029B00221A701DB08E
:1034F000BDE8104003B07047100000200802FFFF35
:103500002DE9F04FD5B00C460C9191460E930A90E0
:1035100002F084FE036817931846FDF711FFA38994
:103520001690190603D52369002B00F08B87002421
:103530002BAB4D46CDE92944CDE91944CDE91B44D7
:103540001294289398461894002308940024CDE9F7
:1035500014342B78002B00F0DD81AA4604E01AF821
:10356000013F002B00F01681252BF8D1BAEB0506A0
:1035700040F014819AF80030002B00F0CB8100233A
:103580004FF0FF329AF801608DF8833009930AF109
:10359000010A07921F462B244FF020090AF1010A65
:1035A000A6F120035A2B00F22D81DFE813F0BA02B6
:1035B0002B012B01B5022B012B012B016A002B01E2
:1035C0002B014F02E3022B015A02C9022B01C40254
:1035D0005B005B005B005B005B005B005B005B0013
:1035E0005B002B012B012B012B012B012B012B014C
:1035F000BF012B011A028600BF01BF01BF012B01D1
:103600002B012B012B01B0022B012B01C3002B013D
:103610002B012B0124022B015F022B012B013C0704
:103620002B012B012B012B012B012B012B012B013A
:10363000BF012B011A028800BF01BF01BF01A30215
:10364000880081002B0196022B018202C5007002C6
:1036500081002B0124027E0039072B012B01190761
:103660002B017E00A6F1300300221AF8016B02EB59
:10367000820203EB4202A6F13003092BF5D909922D
:103680008EE7DDF828B0584602F0C8FD43681B936A
:103690001846FDF755FE1C900646584602F0BEFD42
:1036A00083681993002E40F07A869AF8006075E7D7
:1036B0009AF8006047F0200770E747F01007BA0655
:1036C0000E9B40F18081073323F007031A465B68A5
:1036D00052F8084B0E929946002BC0F25F85079B6B
:1036E000013301F01F8054EA090327F0800B00F03A
:1036F000E3840A2C79F1000380F0818730340123C0
:103700008DF84F415F460B930DF24F1507990B98BB
:103710009DF8832081424FF00003B8BF01460D930E
:1037200006910F9313931093002A7CD0069B0133CC
:10373000069378E047F0100717F0200900F0348175
:103740000E9B073323F00703D3F8049053F8084B7C
:103750000E9327F4806B002300228DF88320079AB4
:10376000511C00F00D8254EA09012BF0800740F053
:103770000682002A41F01080002B40F0A2841BF04A
:1037800001030B9300F0378530238DF84F310DF294
:103790004F15BBE7BAEB050600F0BC802A9B33440B
:1037A0002A93299B0133072BC8E90056299305DC8E
:1037B00008F10808089B33440893DBE60C990A9843
:1037C00028AA03F019FC80B90DF1AC08F2E70C99B6
:1037D0000A9828AA03F010FC002800F08C800D9BAA
:1037E0001BB10D990A9802F013FC0C9B9B8913F0F6
:1037F000400F089B18BF4FF0FF330893089855B04F
:10380000BDE8F08F002E00F0858000228DF8EC607E
:103810008DF88320012306930D920B9307920F924C
:10382000139210923BAD17F0020302D006990231B9
:10383000069117F0840B07D109990698A1EB0009AE
:10384000B9F1000F00F315832A9C8AB1299A0DF172
:10385000830101320134C8F80010072A4FF001013A
:103860002A942992C8F8041000F3468308F1080846
:1038700083B1299B21AA01330234C8F80020072B09
:103880004FF002022A942993C8F8042000F34883D9
:1038900008F10808BBF1800F00F00E82079B0B9A1D
:1038A000A3EB020BBBF1000F00F34F82FB0500F10D
:1038B000A5810B9BC8F804301C44299BC8F8005014
:1038C0000133072B2A94299300F3C78208F10808D3
:1038D0007B0705D5099B069A9D1A002D00F32C83C2
:1038E000DDE9083206998A42ACBF9B185B18089341
:1038F000002C7FF46CAF002329930D9B1BB10D9915
:103900000A9802F085FB0DF1AC0855462B78002B88
:103910007FF423AE2A9B002B3FF467AF0C9C0A98E0
:1039200028AA214603F068FBA38960E70E9B0733B2
:1039300023F00702F2E80234CDE91434DDE914344F
:1039400024F000440E92994618462146A74B4FF0AA
:10395000FF32FDF7EBFD002840F06284A34B4846A0
:1039600021464FF0FF32FDF7C3FD002840F0588498
:10397000DDE9140100220023FDF7B0FD002840F02E
:10398000AD879DF883209A4D9A4B27F0800703213D
:10399000472EC8BF1D4600230D9306910B91079338
:1039A0000F9313931093BFE617F0100340F02E848B
:1039B00017F0400200F054870E9A52F8044B0E9212
:1039C0009946A4B2C5E653F8044B0E93FB0600F1EA
:1039D00018847D0640F1128444F3C0394B4624B26A
:1039E0007AE60E9B002253F8041B8DF883208DF895
:1039F000EC100E930EE70E9C079B54F8045B4FF0FF
:103A000000098DF88390002D00F0D5865A1C00F037
:103A100052851A4649462846FDF7A2FB0D9000281C
:103A200001F057800D9BCDF81C905B1B0B930E94FF
:103A300023EAE3739DF883200693CDF83490CDF804
:103A40003C90CDF84C90CDF840906DE60E9B53F82D
:103A5000042B0992002A80F2C983099A0E935242DC
:103A600009929AF8006047F0040797E547F0100BB9
:103A70001BF0200900F081830E9B073323F007031E
:103A8000D3F8049053F8084B0E93012364E60E9B81
:103A900053F8044B0E93302378268DF88430564B20
:103AA000189347F0020B8DF885604FF00009022350
:103AB00052E6BD0600F18284FC0600F173867806AA
:103AC00000F13C87B90540F16D860E9B089953F8CB
:103AD000042B0E931170554618E79AF800606C2E6F
:103AE00003BF9AF8016047F020070AF1010A47F086
:103AF000100753E59AF80060682E03BF9AF801603A
:103B000047F400770AF1010A47F0400746E59AF8C2
:103B1000006047F0080741E59AF8006047F00107A8
:103B20003CE59DF88330002B7FF4BFAD9AF8006030
:103B30008DF8839032E59AF8006047F080072DE514
:103B4000524612F8016B2A2E01F0CD81A6F1300306
:103B5000092B924698BF002201F288801AF8016B67
:103B600002EB820203EB4202A6F13003092BF5D9E6
:103B7000079215E59AF800608DF883400EE5BB4684
:103B8000012B3FF4B6AD022B54AD12D1189A04F0BC
:103B90000F032409D35C05F8013D44EA09744FEA98
:103BA000191954EA0903F2D154AB5B1B5F460B931E
:103BB000ACE504F00703E40844EA49744FEAD90984
:103BC000303354EA09012A4605F8013DF1D11BF0D2
:103BD000010FE9D0302BE7D03023023A05F8013C41
:103BE00054AB9B1A5F460B9315468FE5FFFFEF7FA3
:103BF000CC920008D0920008DC920008652E40F3B9
:103C0000E680DDE9140100220023FDF75DFC0028B9
:103C100000F0CD81299BBF4AC8F800200133013450
:103C20000122072B2A942993C8F8042000F37D85EC
:103C300008F10808229B129A934280F2D382169BC5
:103C4000179A1C44C8E90023299B2A940133072BA7
:103C5000299300F3EB8308F10808129B5D1E002DE9
:103C60007FF736AE102D299BDFF8AC9240F36E85BE
:103C700049462246B946DDF828B00C9C10260F466E
:103C800005E008F10808103D102D40F35B85013375
:103C90001032072BC8E90076CDE92932F1DD28AAD8
:103CA0002146584603F0A8F900287FF498ADDDE9D5
:103CB00029320DF1AC08E6E7099B069AA3EB020B4B
:103CC000BBF1000F7FF7EAADBBF1100F299ADFF8C7
:103CD00048922CDD1D9621464E460C9CDDF828901E
:103CE000102306E0ABF1100BBBF1100F08F1080830
:103CF0001ADD01321031072AC8E90063CDE9292114
:103D0000F0DD28AA214648460DF1AC0803F074F90D
:103D100000287FF464ADABF1100BBBF1100FDDE9AF
:103D200029214FF01003E4DCB1461D9E0C46013200
:103D30005C44072ACDE92924C8F80090C8F804B0EB
:103D400000F31D8508F10808A8E5BBF1100F299ABA
:103D5000DFF8C4912DDD41462046A8464C460C9D17
:103D6000DDF82890102306E0ABF1100BBBF1100F2B
:103D700001F1080119DD01321030072AC1E90043C1
:103D8000CDE92920F0DD28AA2946484603F034F978
:103D900000287FF424ADABF1100BBBF1100FDDE96F
:103DA00029202BA94FF01003E5DC4546A1468846A3
:103DB000044601325C44072ACDE92924C8F8009062
:103DC000C8F804B000F3CC8108F108086EE5129B36
:103DD000012B40F37C81299EC8F800500136013444
:103DE0000123072E2A942996C8F8043000F3E081B5
:103DF00008F10808169B179A01361C44072EC8E9DB
:103E00000023CDE9296400F3E08108F10808DDE929
:103E1000140100220023FDF757FB002840F07481B5
:103E2000129B0136013B01351C44072EC8F8005097
:103E30002996C8F804302A9400F3598108F108083B
:103E40001A9BC8F8043001361C44072E24ABCDE978
:103E50002964C8F800307FF739AD0C990A9828AA70
:103E600003F0CAF800287FF4BAAC2A9C0DF1AC0824
:103E70002EE5B9F1100FDDE929212BDDCDE91D3B40
:103E80001F96DDF828B04E461024A9460C9D04E08C
:103E9000103E102E08F1080817DD01321F4B1031BB
:103EA000072AC8E90034CDE92921F1DD28AA2946ED
:103EB00058460DF1AC0803F09FF800287FF48FAC52
:103EC000103E102EDDE92921E7DCDDE91D3B4D46E2
:103ED000B1461F9EC8F80490013209EB0104072A7D
:103EE0000E49C8F80010CDE9292400F3FF839DF89E
:103EF000832008F10808A8E40C990A981D9328AAC1
:103F000003F07AF800287FF46AAC2A9C1D9B0DF11F
:103F1000AC08ADE40C93000820930008109300084F
:103F20000C990A9828AA03F067F800287FF457AC88
:103F30002A9C0DF1AC08ADE4102D299B21DD0A9FD0
:103F4000DDF83090102604E0103D102D08F108082F
:103F500017DD0133B04A1034072BC8E90026CDE93C
:103F60002934F1DD28AA494638460DF1AC0803F0A2
:103F700043F800287FF433AC103D102DDDE92934DF
:103F8000E7DC0133A44AC8F804502C44072BCDE9E0
:103F90002934C8F800207FF7A3AC0C990A9828AA06
:103FA00003F02AF800287FF41AAC2A9C98E422999E
:103FB000002940F36683DDF84090129B9945A8BF25
:103FC0009946B9F1000F0BDD299B01334C44072BB7
:103FD000C8E900592A94299300F32F8508F10808AD
:103FE000109EB9F1000FA8BFA6EB0906002E00F342
:103FF0003882DDF840B07805AB4400F16682229B40
:10400000129A934202DBF90740F18E84169A1799AF
:104010001444C8E90012299A2A940132072A2992E5
:1040200000F3188508F10808129AAE18A6EB0B06E3
:10403000D51AAE42A8BF2E46002E0DDD299BC8F82A
:1040400000B001333444072BC8F804602A94299344
:1040500000F31A8608F10808002EA8BFAD1B002D3A
:104060007FF736AC102D299BDFF8B09140F36E83BB
:1040700049462246B946DDF828B00C9C10260F466A
:1040800005E008F10808103D102D40F35B83013373
:104090001032072BC8E90076CDE92932F1DD28AAD4
:1040A0002146584602F0A8FF00287FF498ABDDE9CE
:1040B00029320DF1AC08E6E7079B002B7FF41EAB1D
:1040C0005F46002307930B9354ADFFF71FBBFA071E
:1040D0003FF581AE299EC8F8005001360134012316
:1040E000072E2A942996C8F804307FF7A7AE0C99BA
:1040F0000A9828AA02F080FF00287FF470ABDDE95F
:1041000029640DF1AC089BE6129B5D1E002D7FF724
:1041100097AE102DDFF8049140F39683224607975F
:104120000A9C0C9F4FF0100B05E008F10808103DA9
:10413000102D40F3878301361032072EC8E9009B0B
:10414000CDE92962F1DD28AA3946204602F054FF64
:1041500000287FF444ABDDE929620DF1AC08E6E705
:104160000C990A9828AA02F047FF00287FF437AB81
:104170002A9C0DF1AC08FFF799BB1BF0100340F02F
:1041800028811BF0400200F079830E9A52F8044B0C
:104190000E929946A4B20123FFF7DEBA2D236442A2
:1041A0008DF8833069EB4909BB460123FFF7D7BA85
:1041B0000C990A9828AA02F01FFF00287FF40FAB81
:1041C000DDE929640DF1AC0814E60C990A9828AAD7
:1041D00002F012FF00287FF402ABDDE929640DF143
:1041E000AC0814E6FD077FF573AB28E59AF800608C
:1041F0000E93FFF7D3B954ADFFF788BAB80500F1B5
:10420000A6834FEAE4794B46FFF766BA0E9B53F854
:10421000044B0E93FFF79DBA1093000820930008FB
:10422000DDE9140102460B46FDF780F9002840F055
:104230000F86612E00F04585412E00F06D84079BAE
:10424000013326F02003069300F0A983472B00F0EA
:104250008885DDE9141247F480730F931346002B11
:10426000C0F292850B9300231D938B460D93069B02
:10427000462B00F0FD83452B00F044850799019102
:1042800026A9049123A9039122A9029102210B9B43
:104290000A9800915A4600F0F3FE069B472B05460C
:1042A00040F0318617F0010FB9460F9F40F0FC84B3
:1042B000269B5B1B1293069B472B00F08283069B79
:1042C000462B00F01284229B1093109B069A013B10
:1042D000412A229300F0AD85F2B20021002BB8BF35
:1042E000109B8DF89020BABFC3F101032D222B2221
:1042F000092B8DF8912040F38D850DF19F04B64F69
:104300002246104687FB0321DA17C2EBA10202EB1B
:104310008201A3EB4101303100F8011C19466329E9
:10432000134600F1FF32ECDC3033D9B2831E9C42DD
:1043300002F8011C40F2F18513460DF1920201E0F2
:1043400013F8011B02F8011B9C42F9D10DF1A103E6
:104350000DF192021B1A134424AA9B1A1A93129B62
:104360001A9A012B1A440B9240F39E850B9B169AC6
:1043700013440B930B9A002329F4806722EAE2721C
:1043800047F480770F930692139310931D9B002B95
:1043900040F03F839DF883200793FFF7C5B9199B31
:1043A000002B3FF482A9199B1B78002B3FF47DA9B9
:1043B0009AF8006047F48067FFF7F0B80E9B089802
:1043C00053F8041B0E93C217C1E900025546FFF7CC
:1043D0009DBA0E9B53F8044B0E930123FFF7BCB913
:1043E0007E4B189317F0200900F0EC800E9B0733EA
:1043F00023F00703D3F8049053F8084B0E93F80703
:1044000009D554EA090306D030238DF8856047F0BA
:1044100002078DF8843027F4806B0223FFF79CB9E4
:10442000BB46FFF725BB6E4B1893DBE70C990A9848
:1044300028AA02F0E1FD00287FF4D1A92A9C0DF101
:10444000AC080AE40A98402101F0F4FE0C9B1860C5
:104450001861002800F065850C9A40235361FFF72E
:1044600066B8102E299BDFF87C9140F329824846DC
:1044700042462146A846B9460A9C0C9D4FF0100BB7
:10448000074604E00832103E102E40F31382013339
:104490001031072BC2E9007BCDE92931F2DD28AAD2
:1044A0002946204602F0A8FD00287FF498A9DDE9FE
:1044B00029312BAAE7E72846CDF81C900E94FCF78B
:1044C0003FFF03460B90FFF7B3BA129BCDF82CA029
:1044D0004246DDF84C801097EB1807935E46199F13
:1044E000DDF87090DDF828A0DDF830B00F9B139553
:1044F0002146B8F1000F2FD0002B30D1013F08F139
:10450000FF381B9BC2E90039299B01334944072B23
:104510002A91299368DC0832079B38789B1B8342D9
:10452000A8BF0346002B1C460BDD29980130194417
:104530000728C2E900632A91299000F31481387892
:104540000832002CACBF051B0546002D0BDC0644D1
:104550000F9BB8F1000FCFD1002B00F023820F9BEF
:10456000013B0F93CDE7102D29981DDD102404E0A9
:10457000103D102D02F1080216DD0130194B1031EB
:104580000728C2E90034CDE92901F1DD28AA5946FE
:10459000504602F031FD00287FF421A9103D102D76
:1045A000DDE929012BAAE8DC01300E4B55602944D6
:1045B0000728CDE92901136000F3328238780832E8
:1045C0000644C5E717F0100300F0A1800E9B53F8D6
:1045D000044B0E9313E700BF67666666DC92000823
:1045E000F09200082093000828AA5946504602F08D
:1045F00003FD00287FF4F3A82A992BAA8CE70BF47B
:10460000806300220696CDF82CA0CDF8348054AFFC
:10461000DDF864809A4616460CE0002320464946A1
:104620000A22FCF719FC0A2C79F100031BD304467B
:1046300089462F4620460A2200234946FCF70CFCF7
:1046400030327D1E013607F8012CBAF1000FE4D09C
:1046500098F800309E42E0D1FF2EDED00A2C79F18E
:10466000000380F0408154AB5B1BDDF82CA0CDF83B
:1046700064801296DDF83480069E0B935F46FFF748
:1046800045B8299BBC4AC8F80020013301340122F7
:10469000072B2A942993C8F8042000F3388108F1E5
:1046A0000808002940F09780129A07F0010313438D
:1046B0003FF40EA9169B17991A19C8E90013299BF4
:1046C0002A920133072B299300F3478108F1080848
:1046D0001299C8F8005001338C18072BCDE9293402
:1046E000C8F804107FF7F2A8FFF7B7BB0C990A9837
:1046F0001D9328AA02F080FC00287FF470A89DF882
:1047000083202A9C1D9B0DF1AC08FFF79EB817F083
:10471000400200F0C2800E9A52F8044B0E92994665
:10472000A4B26CE6BB46FEF7E4BF0C990A9828AA2F
:1047300002F062FC00287FF452A82A9C0DF1AC081C
:10474000FFF778BA14463A464F46914601332C4457
:10475000072BC8F80090C8F80450CDE929347FF73A
:10476000B5A8FFF77ABB28AA5946504602F044FC88
:1047700000287FF434A838782A992BAAE1E60C990E
:104780000A9828AA02F038FC00287FF428A82A9C5E
:104790000DF1AC08FFF782B8012BBB467FF4F3A9FB
:1047A000FEF7ACBF0E9B089953F8042B55461160D9
:1047B0000E93FFF7ABB8062B294628BF06230795B3
:1047C0000D952A4606936D4D0E940B930F91139100
:1047D0001091FEF7A9BF169B17981A19C8E9000394
:1047E000299B2A920133072B299300F3B68008F105
:1047F00008080029BFF66CAF4E421031DFF88091F7
:1048000080F297824146DDF828B0A84610240C9D1E
:1048100004E00831103E102E40F38982013310323B
:10482000072BC1E90094CDE92932F2DD28AA2946F7
:10483000584602F0E1FB00287EF4D1AFDDE92932D1
:104840002BA9E7E7079F144601362C44072ECDE934
:104850002964C8F80090C8F804507FF7EFAA46E42E
:104860000E9B17F4007914BF53F8044B53F8044B14
:104870000E931CBF9146E4B2FEF76BBF0E9B1BF478
:10488000007914BF53F8044B53F8044B0E931CBF2C
:104890009146E4B20123FEF75FBF0E9B17F4007947
:1048A00014BF53F8044B53F8044B0E931CBF9146AE
:1048B000E4B2A4E5454690463A460C464F4691463A
:1048C00001333444072BCDE92934C8F80090C8F8E7
:1048D000046057DC08F10808FFF78BBB2D228DF828
:1048E0008320FFF750B81C9B1B99ED1A1A462846E7
:1048F00002F050FB98F801300BB108F10108204696
:1049000049460A2200230026FCF7A6FA8FE60C99F6
:104910000A9828AA02F070FB00287EF460AF229962
:104920002A9C0DF1AC08BCE6129AAE18A6EB0B0659
:10493000D51AAE42A8BF2E46FFF78EBB0E9B089934
:1049400053F8042B0E9311805546FEF7DFBF44F356
:10495000C0194B4664B2FEF7BFBE0C990A9828AA4C
:1049600002F04AFB00287EF43AAFDDE929322299B1
:104970000DF1AC083DE700BF0C930008049300085C
:10498000209300080C990A9828AA02F035FB002809
:104990007EF425AF2A9C0DF1AC08FFF72ABB062355
:1049A000079356E4DDE91235EB189E421997B3469A
:1049B000DDF82CA0109F90460C4628BF9B46FFF7C1
:1049C0001EBB229B1093DA1C02DB079A934204DD84
:1049D000023E26F02003069377E4109B129A93423E
:1049E000C0F2488119F0010F00F01182169A1344A9
:1049F0000B9319F4806F03D0109B002B00F3C78139
:104A00000B9B23EAE3730693672600230F9313930C
:104A1000BCE42D2200238DF883200793FEF786BE89
:104A200028AA5946504602F0E7FA00287EF4D7AE8D
:104A300038782A992BAA06448AE50C990A9828AA5C
:104A400002F0DAFA00287EF4CAAE2A9C0DF1AC0816
:104A5000FFF7C6BA0C990A9828AA02F0CDFA0028E6
:104A60007EF4BDAE229B2A9C0DF1AC08FFF7DCBAA8
:104A70000799019126A9049123A9039122A90291E2
:104A800003210B9B0A9800915A4600F0F9FA03782B
:104A9000302B054600F0F181229B079AB94613445A
:104AA0000F9FEC180B99584600220023FCF70CFDD1
:104AB00010B12346FFF7FDBB269BA342BFF4F9AB21
:104AC00030215A1C26921970269B9C42F9D8FFF778
:104AD000F0BB079B9DF883200E9406930B930790E1
:104AE0000F9013901090FEF71FBE229A1092002A8A
:104AF00040F3E081079909F001030B4340F0B781CF
:104B0000109B0B93662619F4806F40F041810B9B3C
:104B100023EAE373069378E730238DF88430582333
:104B20008DF88530079B632B47F0020400F3BF80AC
:104B300000230D933BADDDE9141247F481730F930D
:104B40001346002B2746C0F285800B9326F02003E6
:104B5000069300238B461D93612E00F04081412E69
:104B60007FF485AB22AA0B99584602F0C9F90022BE
:104B70004FF07F53FBF7B4FD02460B46CDE91023FF
:104B800000220023FCF7A0FC08B101232293AC4BC8
:104B90000B93079BCDE912A6CDE91E78DDF82CA07A
:104BA000DDE9106703F1FF39AB46109506E00022FE
:104BB000002309F1FF39FCF787FCE8B9A14B00227B
:104BC00030463946FBF78CFD0F460646FCF7C4FC21
:104BD0000446FBF71BFD0B46024639463046FBF701
:104BE000C7FB1AF80430B9F1FF3FD8464D460BF821
:104BF000013B06460F46DAD130463946924BDDF886
:104C000048A0139ECDF848800022A946DDF87C809C
:104C1000109D1E9FCDE91001FCF77EFC002855D1A8
:104C2000DDE91001884B0022FCF74EFC08B1E107DA
:104C30004CD44B46002B06DB01335B4430220BF88F
:104C4000012B5B45FBD1ABEB0503B94612930F9FDC
:104C5000FFF731BB26F020030693DDE914349B46B1
:104C600004F100430B932D231D9375E70023079355
:104C7000FEF796BC129B169A9A18109B0B92002B6B
:104C800040F3098167263EE70C990A9828AA02F0AA
:104C9000B3F900287EF4A3AD229D129B2A9C5D1BD4
:104CA0000DF1AC08FFF7D8B9079BEC18FAE60A98A3
:104CB000591C01F0BFFA0546002800F026810D902E
:104CC00039E730238DF88430782329E7129B269327
:104CD0000B9B1BF8012CD97B8A425B4609D1302003
:104CE00003F8010C269B5A1E269213F8012C9142C0
:104CF000F6D0392A0BBF0B9A0132927AD2B203F85E
:104D0000012CA0E707990B9B0A984C1C26A904913B
:104D100023A9039122A9029102215A4601940091EC
:104D200000F0AEF90546B9462C440F9FBAE6454659
:104D3000884601333244072BCDE92932C8F8009068
:104D4000C8F804607FF7C2AC0C990A9828AA02F050
:104D500053F900287EF443ADDDE929320DF1AC08AA
:104D6000B6E4079B002B08BF0123079347F4807329
:104D70000F93159B002BC0F2B180DDF850B00D9061
:104D80000B931D90FFF77ABA00230D9365E7672612
:104D900019990B78FF2B00F0B2800024109A20465E
:104DA00003E001300131FF2B08D0934206DAD21A1A
:104DB0004B78002BF5D10B780134F4E71991109260
:104DC00013900F940F9A139B1C9913440B9A01FB99
:104DD00003230B9323EAE3730693FFF7D7BA22AAC0
:104DE0000B99584602F08CF800224FF07F53FBF7E6
:104DF00077FC02460B46CDE9102300220023FCF786
:104E000063FB08B101232293104B0B93C1E6109B67
:104E10000B93EEE5002963D130228DF892200DF13D
:104E20009302303302F8013B24ABD31A1A93FFF7F5
:104E300096BA06F10F02D2B20121FFF74FBA00BFB6
:104E4000F0920008000030400000E03FDC920008D3
:104E5000159B384D002BB4BF2D229DF88320364B77
:104E6000B8BF8DF8832027F08007FEF790BD169B12
:104E7000D31819440B91662645E60B995846002233
:104E80000023FCF721FB00287FF406AE079BC3F14B
:104E90000103229301E6C3F101031A4422EAE273FB
:104EA0000B9206936726B0E519F0010F3FF462AA52
:104EB000FFF75CBA079A09F0010959EA020304D125
:104EC0000123069366260B939FE5169B01331A4434
:104ED00022EAE2730B920693662696E50D90BCE6F5
:104EE0000DF192029DE70E9B9AF80160924653F8ED
:104EF000042B0E9342EAE2720792FEF74FBB0023A7
:104F00000F9313935EE7079C0DE70C998B8943F091
:104F1000400213468A81FEF76ABC02231A93FFF708
:104F20001EBA0A9A0C2313604FF0FF330893FEF762
:104F300065BC00BFD4920008D8920008024B13B1A0
:104F4000024800F005B8704700000000455F000807
:104F5000002301461A46184602F0CAB82DE9F04F60
:104F600003690C69A34283B0C0F28680013C01F161
:104F70001405A30000F11408009355F8243058F8E4
:104F8000242001338A469A4208EB8401814605EBCE
:104F900084070191B2FBF3F638D30023AE464046B6
:104FA0009B465EF8041B02681FFA81FC06FB0C336B
:104FB000090C4FEA134C06FB01CC99B2ABEB010193
:104FC0001FFA8CF311FA82F1C3EB124202EB214279
:104FD00089B241EA0241774540F8041B4FEA1C437D
:104FE0004FEA224BDDD2009B58F8033073B9019B86
:104FF000043B984504D307E0984504F1FF3403D2FD
:1050000053F80429002AF7D0C9F810405146484601
:1050100001F04EFE00282BDB01364046002355F8F8
:10502000041BD0F800C08AB29A1A0B0C12FA8CF248
:10503000C3EB1C4303EB224392B242EA0342AF426A
:1050400040F8042B4FEA2343E9D258F8242008EB18
:1050500084036AB9043B984504D307E0984504F1FA
:10506000FF3403D253F80429002AF7D0C9F81040BE
:10507000304603B0BDE8F08F002003B0BDE8F08FEC
:105080002DE9F04F016C99B090469946CDE904891D
:10509000259D044641B1426C4A60012393408B60D8
:1050A00001F0AAFB00232364B9F1000AB4BF012375
:1050B00000232B60764BBCBF2AF0004ACDF814A029
:1050C00033EA0A0300F0AA80DDE9042310461946FA
:1050D00000220023CDE90A01FCF7F6F9074670B17A
:1050E000249A01231360269B002B00F0E482694878
:1050F0001860431E0393039819B0BDE8F08F16ABF8
:10510000019317AB00932046DDE90A2301F096FED8
:105110005FEA1A56054640F09780DDE916763E4470
:1051200006F23240202840F3B583C0F140000AFA6D
:1051300000FA06F2124028FA00F04AEA0000FBF7F3
:1051400055FA0123013EA1F1F8710F93524B002251
:10515000FBF70EF948A3D3E90023FBF7C1FA48A3F4
:10516000D3E90023FBF706F9804630468946FBF772
:105170004DFA45A3D3E90023FBF7B2FA02460B46EA
:1051800040464946FBF7F6F880468946FCF7E4F9C5
:1051900000228346002340464946FCF79FF9002839
:1051A00040F07C82BBF1160F00F26B823B4B03EBAD
:1051B000CB03D3E90023DDE90A01FCF78FF90028CE
:1051C00072D00023BE1B0E93731E0BF1FF3B0693A0
:1051D00000F15E8200230993BBF1000F6BDA099B9B
:1051E000CDF81CB0A3EB0B030993CBF100030D9397
:1051F000229B092B4FF0000B66D8052B40F3488308
:10520000043B22930026229B023B032B00F268867C
:10521000DFE813F05C04590450043304249A42F28A
:105220000F73CAF3130A13605AEA08031AD1269BB4
:10523000002B00F064861A4B03930833269A0398D8
:10524000136019B0BDE8F08FDDE90A12C2F3130351
:10525000084643F07F510F97A6F2FF36169F41F4A0
:10526000401173E7269B002B40F0EA830D4B03931C
:1052700041E700BFAFF3008061436F63A787D23F70
:10528000B3C8608B288AC63FFB799F501344D33F35
:105290000000F07F0D9300080000F83F80940008A4
:1052A0003493000830930008BE1B731E069300F170
:1052B00085840E900990069B5B44CDE9063B002354
:1052C0000D93229B092B98D90023CDE92233012687
:1052D0004FF0FF330C960893089B129300216164F2
:1052E000204601F063FA0390002800F00186039B3A
:1052F0002364089B0E2B00F21381002E00F0108116
:105300000799002940F35C84AE4B01F00F0203EBD8
:10531000C2034FEA2118C905D3E9006740F114849C
:10532000A94BDDE90A01D3E90823FBF703FBCDE92B
:10533000100108F00F084FF0030AB8F1000F13D066
:10534000DFF8849218F0010F09D030463946D9E9C8
:105350000023FBF7C5F90AF1010A06460F465FEA8A
:10536000680809F10809EDD1DDE9100132463B4634
:10537000FBF7E0FA804689460E9B43B1934B00222F
:1053800040464946FCF7AAF8002840F030855046D0
:10539000FBF73CF942464B46FBF7A2F98C4B002247
:1053A000FAF7E8FFA1F15073CDE910011193089BC2
:1053B000002B00F09780079B1493089B13930C9B82
:1053C000002B00F0A584139A7E4B8249039E03EBC9
:1053D000C20353E902230020FBF7ACFADDE91023F6
:1053E000FAF7C6FFCDE9100149464046FCF7B4F88C
:1053F0000746FBF70BF902460B4640464946FAF7CB
:10540000B7FF3037DDE9102306F8017B8046894677
:10541000FCF764F8002840F02985CDF854B0002747
:10542000DDE910AB1095139D13942AE00137AF42CC
:1054300080F22C85684B504659460022FBF750F904
:10544000654B002282468B4640464946FBF748F9A9
:1054500089468046FCF780F80446FBF7D7F80246F9
:105460000B4640464946FAF783FF303406F8014BB5
:1054700052465B4680468946FCF730F8002840F0EB
:10548000F38442464B4651490020FAF771FF5246D9
:105490005B46FCF723F80028C8D0DDE91343109DD4
:1054A000039A079302E0964200F0C884B24616F8C9
:1054B000013D392BF7D00133DBB23370079B013349
:1054C0000793C8E15046FBF7A1F842464B46FBF76D
:1054D00007F93F4B0022FAF74DFFA1F15073CDE9D8
:1054E000100111933D4B404649460022FAF740FF18
:1054F000DDE910894B46424606460F46FCF70CF89C
:105500008146002840F0AA84DDE91001024601F13D
:10551000004330463946FBF7E1FF002840F0458361
:10552000179B002BC0F28C80079A0E2A00F388800C
:10553000244B03EBC203D3E900AB239B002B1BDA04
:10554000089B002B18DC40F02E83244B0022504691
:105550005946FBF7C5F802460B46DDE90A01FBF7A1
:10556000C7FFDDF820904E46002800F0C782239B3D
:10557000DDF80C80DF43C9E2DDE90A7852465B467C
:1055800038464146FBF7D6F9FBF7E6FF814609901E
:10559000FBF73CF852465B46FBF7A2F8039E0B462E
:1055A000024641463846FAF7E3FE09F1300306F8B1
:1055B000013B089B012B00F05C83069401270495B6
:1055C0001C462AE080940008589400080000F03F30
:1055D00000001C400000E03F000024400000144098
:1055E00052465B4640464946FBF7A4F9FBF7B4FF39
:1055F0000546FBF70BF852465B46FBF771F801379F
:105600000B46024649464046FAF7B2FE05F1300322
:10561000A74206F8013B00F02983AC4B0022FBF7C0
:105620005FF80022002380468946FBF74DFF0028E3
:10563000D6D0049D069C079B01330793B2460AE12E
:105640000C9A002A3DD0229A012A40F39C82089BA2
:1056500003F1FF380D9B4345C0F26D82A3EB0808B0
:10566000089B002BC0F23C83069A1A440692099AC2
:1056700017461A4409920121204601F065F90646B1
:1056800023E00123BE1B0E93731E06937FF5A2AD8C
:10569000C6F101030993002306939DE55846FAF7E6
:1056A000B5FF42464B46FBF70FFF00287FF47AAD6B
:1056B0000BF1FF3B76E5864B0393039819B0BDE8E9
:1056C000F08FDDF83480099F0C9E002F0CDD0699C9
:1056D00000290B4608DD099AB942A8BF3B46D21AF9
:1056E000FF1ACB1A099206930D9BDBB10C9B002B82
:1056F00000F05D82B8F1000F0FDD314642462046D2
:1057000001F0FEF92A4601460646204601F04AF914
:1057100029460546204601F06FF80D9BB3EB0802C1
:1057200040F0D8820121204601F00EF9BBF1000FB4
:10573000814600F3B480229B012B40F386814FF019
:10574000000A0120BBF1000F40F0B580069A10441A
:1057500010F01F0000F09380C0F12003042B40F3F1
:10576000D283099BC0F11C000344024409930744FF
:105770000692099B002B05DD29461A46204601F0BA
:105780001FFA0546069B002B05DD49461A462046B2
:1057900001F016FA81460E9B002B40F03681089BE3
:1057A000002B40F31D810C9B002B40F0A080079B39
:1057B00001330793DDF80C80DDF820A0012707E016
:1057C000294600230A22204601F020F80137054629
:1057D00049462846FFF7C2FB574500F1300308F859
:1057E000013BEDDB089A002AC8BF9346039AD8BF55
:1057F0004FF0010B934400272946012220460493D1
:1058000001F0DEF94946054601F052FA002840F35E
:10581000A8811BF8013C039A0BF1FF3B04E05A45B9
:1058200000F0AA811BF8013D392B0BF1010AF6D0DB
:1058300001338BF800304946204600F0DDFF56B1B9
:105840002FB1B74203D03946204600F0D5FF31468C
:10585000204600F0D1FF2946204600F0CDFF00236E
:105860008AF80030249B079A1A60269B002B3FF48D
:1058700042AC0398C3F800A019B0BDE8F08F1C201B
:10588000099B03440993069B03440744069370E76E
:105890000126B8E4C0F1200008FA00F04FE4014608
:1058A0005A46204601F02CF9229B012B814640F3F9
:1058B000B3814FF0000AD9F8103009EB830318695F
:1058C00000F0F4FFC0F1200040E700BF00002440DA
:1058D0000C930008314600230A22204600F096FF70
:1058E000129B002B064640F3E782CDE90783002F89
:1058F00000F31A81BAF1000F40F0D581B046049B45
:10590000039F089903F001027B1E1944229B0C920D
:10591000134309910A9349462846FFF71FFB314676
:105920008346284601F0C4F942464946824620464D
:1059300001F0DEF9C26801460BF13003002A42D1C2
:1059400006902846089301F0B3F906990490204682
:1059500000F052FF049A089B1AB90A99002900F036
:105960009B82BAF1000FC0F2638122994AEA010AD0
:105970000C9951EA0A0100F05B81002A00F3B4811E
:10598000099A3B7007F1010A9742D34600F0B281B1
:10599000294600230A22204600F038FF46450546E6
:1059A00031464FF000034FF00A02204612D000F0BB
:1059B0002DFF4146064600230A22204600F026FF1E
:1059C00057468046A7E72046049300F015FF049B46
:1059D0000122C6E700F01AFF5746064680469AE7BE
:1059E000229B022B79DC0C9B002B80D1079B494624
:1059F000013328460793FFF7B1FADDF80CB000F148
:105A000030030BF8013B0027F6E64946284601F033
:105A10004FF90028BFF6C3AE294600230A222046CC
:105A200000F0F4FE079B03F1FF380C9B0546002BAA
:105A30007FF450AF129B002B40F335820893B9E6F8
:105A4000AF4B03930333FFF7F9BBDDE904120029E1
:105A50007FF475AEC2F31303002B7FF470AEA94B35
:105A60001340002B00F0FE81099B01330993069B34
:105A7000013306934FF0010A63E601230C93239B45
:105A8000079A134412930133012B1F460893B8BFA2
:105A900001270021172F61647FF722AC0122042324
:105AA0005B0003F11400B842114602F10102F7D97C
:105AB000616415E401230C93239B002B4CDD1293AE
:105AC00008931F46E5E700230C93D8E700230C93C7
:105AD000F2E7129BCDF81C800893089B002B7FF403
:105AE00046AD49460522204600F090FE014681461B
:105AF000284601F0DDF800287FF739AD0398079FAD
:105B00003123804600F8013B013703904946204687
